:020000040800F2
:10000000D00D0024390300082F2200082722000801
:100010002B220008F503000801240008000000005E
:100020000000000000000000000000003522000871
:10003000F9030008000000003322000837220008FE
:100040005F0300085F0300085F0300085F03000808
:100050005F0300085F0300085F0300085F030008F8
:100060005F0300085F0300085F0300085F030008E8
:100070005F0300085F0300085F0300085F030008D8
:100080005F0300085F0300085F0300085F030008C8
:100090005F0300085F0300085F0300085F030008B8
:1000A0005F0300085F0300085F0300085F030008A8
:1000B0005F0300085F0300085F0300085F03000898
:1000C0005F0300085F0300085F0300085F03000888
:1000D0005F030008F12300085F0300085F030008C6
:1000E0005F0300085F030008000000005F030008D2
:1000F0005F0300085F0300085F0300085F03000858
:100100005F0300085F0300085F0300085F03000847
:100110005F0300085F0300085F0300085F03000837
:100120005F0300085F0300085F0300085F03000827
:100130005F0300085F0300085F0300085F03000817
:1001400000000000000000000000000000000000AF
:100150005F0300085F0300085F0300085F030008F7
:100160005F0300085F0300085F0300085F030008E7
:100170005F0300085F0300085F0300080000000041
:100180005F0300085F0300085F0300085F030008C7
:100190005F0300085F0300085F0300085F030008B7
:1001A0005F0300085F0300085F0300085F030008A7
:1001B0005F0300085F0300085F0300085F03000897
:1001C0005F0300085F0300085F0300085F03000887
:1001D0005F0300085F0300085F0300085F03000877
:1001E0005F0300085F0300085F0300085F03000867
:1001F0005F0300085F0300085F0300085F03000857
:100200005F0300085F0300085F0300085F03000846
:100210005F0300085F0300085F0300085F03000836
:100220005F0300085F0300085F0300080000000090
:100230005F0300085F030008000000005F03000880
:100240005F0300085F0300085F0300085F03000806
:100250005F0300085F0300085F0300085F030008F6
:100260005F0300085F0300085F0300085F030008E6
:100270005F0300085F0300085F0300080000000040
:100280005F0300085F0300085F0300080000000030
:10029000000000005F03000800F002F800F03CF8E6
:1002A0000AA090E8000C82448344AAF10107DA45D1
:1002B00001D100F031F8AFF2090EBAE80F0013F0E7
:1002C000010F18BFFB1A43F0010318475843000001
:1002D00078430000103A24BF78C878C1FAD8520792
:1002E00024BF30C830C144BF04680C6070470000B0
:1002F0000023002400250026103A28BF78C1FBD82F
:10030000520728BF30C148BF0B6070471FB502F0CD
:100310009BFD1FBD10B510BD00F039F81146FFF769
:10032000F5FF02F007F900F057F803B4FFF7F2FF0A
:1003300003BC02F083F80000DFF83000016841F4EC
:10034000700101600A4880470A480047FEE7FEE75F
:10035000FEE7FEE7FEE7FEE7FEE7FEE7FEE7FEE775
:1003600005480649044A064B7047000088ED00E046
:100370004122000899020008D0050024D00D002475
:10038000D005002470477047704770477047754626
:1003900000F02CF8AE4605006946534620F00700F1
:1003A000854618B020B5FFF7DBFFBDE820404FF0D1
:1003B00000064FF000074FF000084FF0000B21F04F
:1003C0000701AC46ACE8C009ACE8C009ACE8C0091C
:1003D000ACE8C0098D46704710B50446AFF3008005
:1003E0002046BDE81040FFF7A0BF0000004870475E
:1003F0007005002400BFFEE7704700002DE9F041C2
:10040000044600F053FD804614B90120BDE8F08198
:1004100094F83500022808D08020606500BF0020D5
:1004200084F8340000BF0120F0E7FE4920688842CC
:1004300049D0FC4918312068884244D0F94930310C
:10044000206888423FD0F7494831206888423AD036
:10045000F44960312068884235D0F249783120680B
:10046000884230D0EF499031206888422BD0ED4946
:10047000A8312068884226D0EB492068884222D0E3
:10048000E9491831206888421DD0E7493031206899
:10049000884218D0E44948312068884213D0E249A4
:1004A0006031206888420ED0DF4978312068884268
:1004B00009D0DD4990312068884204D0DA49A8315A
:1004C0002068884201D1012000E0002068B1206846
:1004D000006820F01E00216808602068406920F054
:1004E000800021684861256806E02068006820F0E7
:1004F0000E00216808602568CA492068884270D0CB
:10050000C8491831206888426BD0C649303120680C
:10051000884266D0C34948312068884261D0C149C9
:100520006031206888425CD0BE49783120688842BA
:1005300057D0BC4990312068884252D0B949A8317F
:10054000206888424DD0B8492068884249D0B649D1
:1005500018312068884244D0B3493031206888423D
:100560003FD0B1494831206888423AD0AE49603125
:100570002068884235D0AC4978312068884230D034
:10058000A9499031206888422BD0A749A83120681A
:10059000884226D0A5492068884222D0A349143138
:1005A000206888421DD0A14928312068884218D08F
:1005B0009E493C312068884213D09C4950312068C4
:1005C00088420ED0994964312068884209D0974901
:1005D00078312068884204D094498C312068884260
:1005E00001D1012000E0002028B1206E006820F435
:1005F0008070216E08608B492068884249D0894903
:1006000018312068884244D08649303120688842B9
:100610003FD084494831206888423AD081496031CE
:100620002068884235D07F4978312068884230D0B0
:100630007C499031206888422BD07A49A8312068C3
:10064000884226D078492068884222D076491831DD
:10065000206888421DD0744930312068884218D003
:10066000714948312068884213D06F496031206851
:1006700088420ED06C4978312068884209D06A4996
:1006800090312068884204D06749A83120688842A8
:1006900006D12068006820F001002168086005E0AC
:1006A0002068006820F001002168086011E000F077
:1006B000FDFBA0EB080005280BD920206065032076
:1006C00084F8350000BF002084F8340000BF01200A
:1006D0009CE6286800F001000028E8D15149206814
:1006E000884249D04F4918312068884244D04D494A
:1006F0003031206888423FD04A49483120688842DA
:100700003AD0484960312068884235D0454978312F
:100710002068884230D043499031206888422BD0ED
:100720004049A8312068884226D03F492068884245
:1007300022D03D491831206888421DD03A493031D5
:100740002068884218D0384948312068884213D040
:1007500035496031206888420ED0334978312068AD
:10076000884209D0304990312068884204D02E490F
:10077000A8312068884201D1012000E0002040B16A
:10078000A66D94F85C0000F01F013F208840B06027
:1007900007E0A76D94F85C0000F01F01012088407D
:1007A000786020492068884276D01E491831206838
:1007B000884271D01B493031206888426CD0194979
:1007C00048312068884267D01649603120688842E5
:1007D00062D014497831206888425DD01149903147
:1007E0002068884258D00F49A8312068884253D0E9
:1007F0000D49206888424FD00B4918312068884243
:100800004AD0094930312068884245D006494831EC
:100810002068884240D004496031206888423BD03B
:10082000014905E01000024010040240085402583B
:100830007831206888422FD02549206888422BD003
:10084000234918312068884226D0224920688842EE
:1008500022D020491431206888421DD01D492831FA
:100860002068884218D01B493C312068884213D048
:1008700018495031206888420ED0164964312068EA
:10088000884209D0134978312068884204D0114940
:100890008C312068884201D1012000E0002068B13D
:1008A000D4E919104860E06E40B1E06E006820F4B1
:1008B0008070E16E0860D4E91C104860012084F863
:1008C000350000BF002084F8340000BF00BF9DE564
:1008D000A00402400854025870B504460CB9012027
:1008E00070BD94F83500022803D080206065012097
:1008F000F6E7DC492068884249D0DA491831206897
:10090000884244D0D7493031206888423FD0D54909
:100910004831206888423AD0D24960312068884204
:1009200035D0D04978312068884230D0CD499031D7
:10093000206888422BD0CB49A8312068884226D035
:10094000C9492068884222D0C749183120688842A6
:100950001DD0C54930312068884218D0C24948317D
:100960002068884213D0C0496031206888420ED088
:10097000BD4978312068884209D0BB499031206850
:10098000884204D0B849A8312068884201D10120AA
:1009900000E00020F0B3042084F83500B14920685D
:1009A00088424BD0AF4918312068884246D0AD49C3
:1009B00030312068884241D0AA49483120688842B5
:1009C0003CD0A84960312068884237D0A5497831A9
:1009D0002068884232D0A3499031206888422DD0C7
:1009E000A049A8312068884228D09F4920688842C1
:1009F00024D09D491831206888421FD09A4930314F
:100A0000206888421AD0984948312068884215D019
:100A1000954900E020E06031206888420ED092497C
:100A200078312068884209D08F4990312068884207
:100A300004D08D49A8312068884206D1206800681A
:100A400020F001002168086009E12068006820F0BA
:100A500001002168086002E12068006820F00E00B3
:100A6000216808607F492068884249D07D49183153
:100A70002068884244D07B493031206888423FD08A
:100A800078494831206888423AD0764960312068F8
:100A9000884235D0734978312068884230D0714916
:100AA0009031206888422BD06E49A8312068884256
:100AB00026D06D492068884222D06B4918312068C1
:100AC00088421DD0684930312068884218D0664974
:100AD00048312068884213D06349603120688842D9
:100AE0000ED0614978312068884209D05E49903142
:100AF0002068884204D05C49A8312068884206D129
:100B00002068006820F001002168086005E0206886
:100B1000006820F00100216808605249206888427E
:100B200070D050491831206888426BD04D4930311F
:100B30002068884266D04B4948312068884261D09D
:100B400048496031206888425CD046497831206845
:100B5000884257D0434990312068884252D0414959
:100B6000A831206888424DD03F492068884249D04A
:100B70003D4918312068884244D03B4930312068D3
:100B800088423FD038494831206888423AD03649B7
:100B900060312068884235D03349783120688842F6
:100BA00030D031499031206888422BD02E49A8316D
:100BB0002068884226D02D492068884222D02B49BF
:100BC0001431206888421DD0284928312068884285
:100BD00018D026493C312068884213D0234950312F
:100BE000206888420ED0214964312068884209D0AB
:100BF0001E4978312068884204D01C498C31206815
:100C0000884201D1012000E00020D8B1206E0068A8
:100C100020F48070216E0860A56D94F85C0000F0EF
:100C20001F01012088406860D4E919104860E06E17
:100C300040B1E06E006820F48070E16E0860D4E995
:100C40001C104860012084F8350000BF002084F8A3
:100C5000340000BF206D10B12046216D8847002070
:100C60003EE6000010000240100402400854025802
:100C70000348006840F00100014908607047000027
:100C800020040058F8B502460B4600216F4DD7E00E
:100C900001278F401E6806EA0704002C72D01E79D7
:100CA00006F00306012E04D01E7906F00306022E7C
:100CB00013D190684F000326BE40B0434F00DE685A
:100CC000BE4030439060506801268E40B0431E798C
:100CD000C6F300168E40304350601E7906F00306BE
:100CE000032E09D0D0684F000326BE40B0434F000A
:100CF0009E68BE403043D0601E7906F00306022E87
:100D000013D1CF0802F1200656F827004E07F70E40
:100D10000F26BE40B0434F07FF0E1E69BE40304352
:100D2000CF0802F1200646F8270010684F0003267E
:100D3000BE40B0431E7906F003064F00BE4030436C
:100D400010605E6806F44036002E78D000BF404E3A
:100D5000366846F002063E4F3E603E46366806F074
:100D60000206009600BF00BF3A4E8F0856F82700D3
:100D70008E07370F0F26BE40B043374EB24202D126
:100D800000262EE05BE0354EB24201D1012628E07C
:100D9000334EB24201D1022623E0324EB24201D19B
:100DA00003261EE0304EB24201D1042619E02F4E38
:100DB000B24201D1052614E02D4EB24201D10626E1
:100DC0000FE02C4EB24201D107260AE02A4EB24271
:100DD00001D1082605E0294EB24201D1092600E0E2
:100DE0000A268F073F0FBE4030431A4E8F0846F841
:100DF00027004FF0B0463068A0435E6806F48016C6
:100E000006B120434FF0B04630607068A0435E6882
:100E100006F4001606B120434FF0B04670606868D3
:100E2000A0435E6806F4003606B120436860286877
:100E3000A0435E6806F4803606B120432860491C52
:100E40001E68CE40002E7FF423AFF8BD800000580E
:100E5000F4440258080400580000025800040258E4
:100E600000080258000C02580010025800140258E2
:100E700000180258001C0258002002580024025892
:100E800010B5426921EA020302EA010443EA04437D
:100E9000836110BD0AB1816101E00B048361704779
:100EA00001480068000C70470010005C01480068B1
:100EB000704700000C0000240348006803490978CB
:100EC00008440149086070470C0000241400002405
:100ED00010B5052000F096F800F042FA10490968B4
:100EE000C1F303210F4A515C01F01F0120FA01F404
:100EF0000B48006800F00F001146085C00F01F006E
:100F000024FA00F008490860084804600F2000F047
:100F10000FF808B1012010BD00F036F80020FAE704
:100F200018440258522E0008040000240000002437
:100F300070B504461148007808B9012070BD0F480B
:100F400000784FF47A71B1FBF0F00D490968B1FBFC
:100F5000F0F5284600F01AFF08B10120EEE7102C4A
:100F600007D200222146501E00F00FF80548046009
:100F700001E00120E2E70020E0E700001400002487
:100F8000000000241000002470472DE9F05F804627
:100F90000D46164601F036FA074639462A463346CC
:100FA00001F00700C0F1070ABAF1040F02D94FF0AF
:100FB000040A01E0C0F1070AD14600F1040ABAF1BF
:100FC000070F02D24FF0000A01E0A0F1030AD44655
:100FD0004FF0010A0AFA09FAAAF1010A0AEA020A1A
:100FE0000AFA0CFA4FF0010B0BFA0CFBABF1010BF8
:100FF0000BEA030B4AEA0B042146404601F00AFAC9
:10100000BDE8F09F00BF00F00702064B19684FF6DD
:10101000FF031940044B0B4343EA0221014B1960C3
:1010200000BF70470CED00E00000FA0503480068BF
:1010300040F0807001490860704700000C48025879
:101040002DE9F04104460D4614B90120BDE8F081B8
:10105000BD48006800F00F00A8420ED2BA480068F0
:1010600020F00F002843B84908600846006800F0E7
:101070000F00A84201D00120E8E7207800F004002A
:1010800004280ED1B1492069096801F07001884235
:1010900007D9AE48006820F0700021690843AB49C9
:1010A0000860207800F00800082811D1A749091D20
:1010B0006069096801F07001884209D9A348001DE0
:1010C000006820F0700061690843A049091D0860AC
:1010D000207800F01000102811D19C49091DA0694A
:1010E000096801F4E061884209D99848001D006848
:1010F00020F4E060A16908439449091D0860207844
:1011000000F02000202811D190490831E0690968D9
:1011100001F07001884209D98C480830006820F03D
:101120007000E1690843894908310860207800F0BF
:10113000020002280ED18549E068096801F00F011C
:10114000884207D98148006820F00F00E168084311
:101150007E490860207800F00100002850D07B48CC
:10116000006820F47060A1680843784908606068EE
:10117000022807D1754818380068C0F34040F8B914
:10118000012063E76068032807D1704818380068B9
:10119000C0F34060A0B9012058E76068012807D17A
:1011A0006A4818380068C0F3002048B901204DE7AC
:1011B000664818380068C0F3800008B9012045E788
:1011C00062480838006820F00700616808435F49FA
:1011D00008390860FFF76AFE064608E0FFF766FE7A
:1011E000801B41F28831884201D903202EE75748FD
:1011F0000838006800F038006168B0EBC10FEDD12D
:10120000207800F0020002280ED15049E0680968F9
:1012100001F00F01884207D24C48006820F00F000F
:10122000E1680843494908604748006800F00F003A
:10123000A8420ED94448006820F00F0028434249D4
:1012400008600846006800F00F00A84201D00120A5
:10125000FCE6207800F0040004280ED13B49206908
:10126000096801F07001884207D23848006820F010
:1012700070002169084335490860207800F00800B3
:10128000082811D13149091D6069096801F0700110
:10129000884209D22D48001D006820F07000616965
:1012A00008432A49091D0860207800F01000102822
:1012B00011D12649091DA069096801F4E06188423D
:1012C00009D22248001D006820F4E060A1690843AB
:1012D0001E49091D0860207800F02000202811D147
:1012E0001A490831E069096801F07001884209D2A1
:1012F00016480830006820F07000E169084313497F
:101300000831086000F02CF810490968C1F3032186
:101310000F4A515C01F01F0120FA01F70B480068E9
:1013200000F00F001146085C00F01F0027FA00F0E3
:10133000084908600848076008480068FFF7F8FD9A
:101340008046404682E600000020005218440258C1
:10135000522E000804000024000000241000002485
:10136000F0B5824E366806F0380636B1082E15D034
:10137000102E15D0182E7DD114E07C4E103E36680C
:10138000C6F3401646B1794E103E3668C6F3C10723
:10139000774E26FA07F000E07548E5E07548E3E08F
:1013A0007548E1E0714E1836366806F003046F4E5A
:1013B00018363668C6F305116C4E1C36366806F0D2
:1013C00001056A4E24363668C6F3CC0616FB05F6D0
:1013D00001EE106AB8EE410A002971D024B1012C47
:1013E00050D0022C6DD16DE0604E103E3668C6F3D1
:1013F00040163EB35D4E103E3668C6F3C1075C4EE4
:1014000026FA07F301EE103AF8EE411A01EE101A2F
:10141000B8EE411A81EE812A9FED581AC0EE011AEA
:10142000524E20363668C6F3080601EE106AB8EE52
:10143000411A31EE811AF7EE001A31EE211A62EEEE
:10144000010A1EE001EE101AB8EE411ADFED4C1A47
:1014500081EE812A9FED491AC0EE011A434E2036D3
:101460003668C6F3080601EE106AB8EE411A31EE8E
:10147000811A00E076E0F7EE001A31EE211A62EEF2
:10148000010A5BE001EE101AB8EE411A9FED3D2A09
:10149000C2EE011A9FED391A80EE012A334E203632
:1014A0003668C6F3080601EE106AB8EE411A32EE4D
:1014B000011AB7EE002A31EE021A61EE810A3DE010
:1014C0004EE01DE001EE101AB8EE411ADFED2E1AC3
:1014D00081EE812A9FED291AC0EE011A234E203693
:1014E0003668C6F3080601EE106AB8EE411A31EE0E
:1014F000811AF7EE001A31EE211A62EE010A1DE0A0
:1015000001EE101AB8EE411A9FED1E2AC2EE011A22
:101510009FED1A1A80EE012A144E20363668C6F363
:10152000080601EE106AB8EE411A32EE011AB7EE63
:10153000002A31EE021A61EE810A00BF00BF0B4E95
:1015400020363668C6F34626721C01EE102AB8EE25
:10155000411AC0EE811ABCEEE11A11EE100A00E049
:10156000002001E0034800BF00BFF0BD1044025856
:101570000090D00300093D0040787D010000004646
:101580000024744C0024744A20BCBE4B2DE9F04763
:10159000044614B90120BDE8F087207800F001006E
:1015A000002870D0FA48006800F03808F848183071
:1015B000D0F80090B8F1100F06D0B8F1180F0FD185
:1015C00009F0030002280BD1F14810380068C0F37D
:1015D000404000286AD06068002867D10120DAE71F
:1015E00000BF6068B0F5803F08D1E9481038006856
:1015F00040F48030E649103908602EE0606868B930
:10160000E3481038006820F48030E1491039086060
:101610000846006820F4802008601EE06068B0F58D
:10162000A02F0DD1DA481038006840F48020D84946
:10163000103908600846006840F4803008600CE00B
:10164000D3481038006820F48030D1491039086040
:101650000846006820F48020086000BF606898B1E8
:10166000FFF724FC054606E0FFF720FC401B64283A
:1016700001D903208FE7C64810380068C0F3404006
:101680000028F1D012E012E0FFF710FC054606E05A
:10169000FFF70CFC401B642801D903207BE7BC4802
:1016A00010380068C0F340400028F1D100BF207816
:1016B00000F00200022874D1B548006800F0380834
:1016C000B3481830D0F80090B8F1000F05D0B8F149
:1016D000180F56D109F00300D0BBAD481038006890
:1016E000C0F3800018B1E06808B9012053E7A848AA
:1016F0001038006820F01900E1680843A449103947
:101700000860FFF7D3FB054606E0FFF7CFFB401B61
:10171000022801D903203EE79D4810380068C0F335
:1017200080000028F1D000BFFFF7BAFB41F20301AF
:1017300088421AD8206940280BD195480C38006897
:1017400020F47C3040F4003091490C39086017E0F7
:1017500017E08F480C38006820F47C30216940EA9B
:1017600001308B490C3908600AE089480C38006860
:1017700020F0FE40217C40EA016085490C39086078
:1017800066E0E06888B382481038006820F01900ED
:10179000E16808437E4910390860FFF787FB05467A
:1017A00007E056E0FFF782FB401B022801D9032027
:1017B000F1E6774810380068C0F380000028F1D0C7
:1017C00000BFFFF76DFB41F2030188421AD8206980
:1017D00040280BD16E480C38006820F47C3040F46F
:1017E00000306B490C39086017E017E068480C3886
:1017F000006820F47C30216940EA013064490C39EA
:1018000008600AE062480C38006820F0FE40217C45
:1018100040EA01605E490C39086019E05C48103804
:10182000006820F001005A4910390860FFF73EFBBC
:10183000054606E0FFF73AFB401B022801D90320CA
:10184000A9E6534810380068C0F380000028F1D1A1
:1018500000BF207800F0100010287CD14C480068B0
:1018600000F038084A481830D0F80090B8F1080F56
:1018700006D0B8F1180F3DD109F00300012839D185
:10188000434810380068C0F3002020B1E069802888
:1018900001D001207FE600BFFFF702FB41F2030108
:1018A00088421AD8206A20280AD139480C380068A2
:1018B00020F0F84040F0804035490C39086018E0CD
:1018C00033480C38006820F0F84094F8201040EAC3
:1018D00081602F490C3908600BE02D48001F00681B
:1018E00020F07C5094F8201040EA01602849091F3C
:1018F000086066E0E06978B325481038006840F079
:101900008000234910390860FFF7D0FA054606E049
:10191000FFF7CCFA401B022801D903203BE61C4804
:1019200010380068C0F300200028F1D000BFFFF796
:10193000B7FA41F2030188421CD8206A20280CD152
:1019400013480C38006820F0F84040F080401049FF
:101950000C3908601AE035E01CE00D480C380068CE
:1019600020F0F84094F8201040EA816008490C39D2
:1019700008600BE00648001F006820F07C5094F8D7
:10198000201040EA01600249091F086019E00000C8
:1019900010440258FA48006820F08000F8490860B6
:1019A000FFF784FA054606E0FFF780FA401B02289D
:1019B00001D90320EFE5F2480068C0F300200028B9
:1019C000F2D100BF207800F00800082836D1606905
:1019D000D0B1EB487430006840F00100E849743140
:1019E0000860FFF763FA054606E0FFF75FFA401B61
:1019F000022801D90320CEE5E14874300068C0F325
:101A000040000028F1D019E0DD487430006820F073
:101A10000100DB4974310860FFF748FA054606E02B
:101A2000FFF744FA401B022801D90320B3E5D4484C
:101A300074300068C0F340000028F1D1207800F035
:101A40002000202830D1A069B8B1CD48006840F40A
:101A50008050CB490860FFF729FA054606E0FFF7FA
:101A600025FA401B022801D9032094E5C4480068E8
:101A7000C0F340300028F2D016E0C148006820F4DE
:101A80008050BF490860FFF711FA054606E0FFF7EE
:101A90000DFA401B022801D903207CE5B8480068F4
:101AA000C0F340300028F2D1207800F00400042870
:101AB0007DD1B448006840F48070B2490860FFF7F7
:101AC000F5F9054606E0FFF7F1F9401B642801D956
:101AD000032060E5AB48006800F480700028F2D075
:101AE00000BFA068012808D1A5487030006840F008
:101AF0000100A349703108602DE0A06868B9A048D2
:101B00007030006820F001009D497031086008467F
:101B1000006820F0040008601DE0A06805280DD1D1
:101B200097487030006840F00400954970310860B3
:101B30000846006840F0010008600CE090487030F2
:101B4000006820F001008E49703108600846006886
:101B500020F00400086000BFA068A0B1FFF7A6F95C
:101B6000054608E0FFF7A2F9401B41F288318842A0
:101B700001D903200FE5824870300068C0F34000AF
:101B80000028EFD013E0FFF791F9054608E0FFF7D2
:101B90008DF9401B41F28831884201D90320FAE4D3
:101BA000774870300068C0F340000028EFD1606AC9
:101BB00000287DD072481030006800F038001828E6
:101BC00077D0606A022875D16D48006820F0807077
:101BD0006B490860FFF76AF9054606E0FFF766F90A
:101BE000401B022801D90320D5E465480068C0F3F2
:101BF00040600028F2D100BFD4E90A1041EA001089
:101C00005F492831096840F2F332914308435C4947
:101C100028310860208E401EC0F30800616B491E09
:101C20004FF47E4202EA41210843218F491ED2012E
:101C300002EA014108433C21095D491E120202EA01
:101C4000016108434E493031086000BF081F006839
:101C500020F00100091F08604948343000684FF641
:101C6000F8718843A16C40EAC100454934310860ED
:101C700043482C30006820F00C00216C0843404998
:101C80002C3108600846006820F00200616C0843AF
:101C90003B492C3108600846006840F480300860F9
:101CA0000846006840F4003008600846006802E01A
:101CB0006AE038E01FE040F48020086008460068D1
:101CC00040F0010008602E48006840F080702C4908
:101CD0000860FFF7EBF8054606E0FFF7E7F8401B62
:101CE000022801D9032056E425480068C0F340606B
:101CF0000028F2D048E02248006820F08070204997
:101D00000860FFF7D3F8054606E0FFF7CFF8401B61
:101D1000022801D903203EE419480068C0F340605E
:101D20000028F2D130E016482830076814483030D7
:101D30000668606A012821D007F00301A06A814289
:101D40001CD1C7F30511E06A884217D1C6F3080118
:101D5000206B401E814211D1606B401EC6F34621AC
:101D600088420BD1A06B401EC6F30641884205D1C4
:101D7000E06B401EC6F30661884205D001200AE4EC
:101D80000044025800480258002004E470B504469C
:101D90002546681EB0F1807F01D301200FE0681E48
:101DA0004FF0E02148610F214FF0FF3000F032FB8F
:101DB00000204FF0E021886107200861002070BDFD
:101DC0007047704770477047704700002DE9F04733
:101DD00004462068C569206806682068876840F660
:101DE0000F0005EA0009B9F1000F0FD105F020003E
:101DF00060B106F0200010B907F0805030B1206FBC
:101E000010B12046216F8847BDE8F087B9F1000F77
:101E10007ED0F948384018B9F84830400028F7D04B
:101E200005F0010058B106F4807040B1012021682E
:101E30000862D4F88C0040F00100C4F88C0005F072
:101E4000020058B107F0010040B102202168086289
:101E5000D4F88C0040F00400C4F88C0005F00400B5
:101E600058B107F0010040B1042021680862D4F89D
:101E70008C0040F00200C4F88C0005F0080070B13E
:101E800006F0200010B9DC48384040B10820216835
:101E90000862D4F88C0040F00800C4F88C0005F407
:101EA000006060B106F0806048B14FF400602168C6
:101EB0000862D4F88C0040F02000C4F88C00D4F8FC
:101EC0008C0000284ED005F0200050B106F0200014
:101ED00010B907F0805020B1206F10B12046216F5B
:101EE0008847D4F88CA02068806800F04000402823
:101EF00002D00AF0280070B3204600F02BFA2068C8
:101F0000806800F04000402821D100BF00BF00E001
:101F100029E02168083151E8001F21F040002168C4
:101F2000083141E80002002AF1D100BFE06F50B152
:101F3000B348E16F0865E06FFEF7CEFC90B1E06F4B
:101F4000016D88470EE02046FFF73EFF0AE020467D
:101F5000FFF73AFF06E0FFE72046FFF735FF0020D6
:101F6000C4F88C0050E7E06E012872D105F0100033
:101F700000286ED006F010000028FAD0102021684A
:101F800008622068806800F0400040287ED1E06F41
:101F900000689C49884258D0E06F00689949183120
:101FA000884252D0E06F00689649303188424CD068
:101FB000E06F006893494831884246D0E06F00687E
:101FC00090496031884240D0E06F00688D49783197
:101FD00088423AD0E06F00688A499031884234D014
:101FE000E06F00688749A83188422ED0E06F006812
:101FF0008549884229D0E06F0068834918318842BA
:1020000023D0E06F00688049303188421DD0E06FF6
:1020100000687D494831884217D0E06F00687A49EE
:102020006031884211D0E06F00687749783188428A
:102030000BD0E06F006874499031884205D0E06FA2
:1020400000687149A831884204D1E06F0068406897
:1020500003E0A0E0E06F006840681FFA80F8B8F184
:10206000000F55D0B4F85C00404551DDA4F85E8007
:10207000E06FC069B0F5807F41D000BF00BF21682C
:1020800051E8001F21F48070226800E041E042E83E
:1020900000010029F3D100BF00BF00BF2168083153
:1020A00051E8001F21F001002168083141E80002D9
:1020B000002AF3D100BF00BF00BF2168083151E8FA
:1020C000001F21F040002168083141E80002002A89
:1020D000F3D100BF2020C4F888000020E06600BFD4
:1020E00000BF216851E8001F21F01000226842E87B
:1020F00000010029F5D100BFE06FFEF77FF9B4F8C9
:102100005C00B4F85E20801A81B22046FFF758FECA
:102110007AE634F85C0F6188401A1FFA80F860880C
:102120005C3CB8B3B8F1000F34D000BF00BF2168E9
:1021300051E8001F21F49070226842E80001002954
:10214000F5D100BF00BF00BF2168083151E8001F72
:10215000294AD24301EA02002168083141E800021D
:10216000002AF1D100BF2020C4F888000020E066DA
:10217000206700BF00BF216851E8001F21F0100058
:10218000226842E800010029F5D100BF41462046FF
:10219000FFF716FE38E605F4801050B107F4800012
:1021A00038B14FF48010216808622046FFF70BFE1B
:1021B0002AE605F0800058B106F0800010B907F457
:1021C000000028B1606F10B12046616F88471BE6A0
:1021D00005F0400030B106F0400018B1204600F094
:1021E000EFF811E605F4000080B106F0804068B118
:1021F0002046FFF7E7FD07E601000010200100047C
:102200003D230008100002401004024005F08070D9
:1022100030B106F0004018B12046FFF7D2FDF3E5DB
:1022200000BFF1E5704700BFFEE700BFFEE700BF5B
:10223000FEE77047704710B5FEF73EFE10BD000088
:102240003448006840F47000324908603248006841
:1022500000F00F00072806D22F48006820F00F007A
:10226000C01D2D4908602D48006840F001002B4931
:102270000860002029491031086028480068284972
:102280000840264908602448006800F00F0007282D
:1022900006D92148006820F00F00C01D1E490860C3
:1022A00000201E4918310860091D0860091D0860DA
:1022B0001C481A49283108601B48091D08601B4842
:1022C000091D08600020091D08601848091D0860E4
:1022D0000020091D08601548091D08600020091D1F
:1022E00008600E48006820F480200C490860002037
:1022F0000A49603108600E4800686FF30F00B0F1C2
:10230000005F02D201200B49086043F2D2000A4963
:102310000860704788ED00E0002000520044025839
:102320007FEDF6EA000202020000FF0180020101D7
:102330000010005C088100510040005270B5054655
:10234000AC6B0020A4F85E00A4F856002046FFF70E
:102350003BFD70BD00BF00BF026852E8002F22F4B1
:102360009071036843E80012002AF5D100BF00BF56
:1023700000BF0268083252E8002F104B02EA030146
:102380000268083242E80013002BF2D100BFC16E90
:1023900001290CD100BF00BF026852E8002F22F0D3
:1023A0001001036843E80012002AF5D100BF202184
:1023B000C0F888100021C16601677047FEFFFFEF7B
:1023C00010B5044600BF00BF216851E8001F21F08E
:1023D0004000226842E800010029F5D100BF20201A
:1023E000C4F88400002060672046FFF71BFF10BD83
:1023F00010B50248FFF7EAFC10BD0000E000002421
:1024000000BFFEE702480068C0F3022070470000EA
:102410000CED00E010B5002804DB0A07130E054A96
:10242000135406E00A07140E034A00F00F031B1FA3
:10243000D45410BD00E400E018ED00E000BF704788
:1024400001490860704700000800002410B50446E8
:102450004FF47A7104FB01F000F002F810BD0000A7
:1024600070B5034600224FF0E02675690D4E3668C0
:1024700003FB06F44FF0E026B16910E04FF0E026D0
:10248000B06988420BD0884202D20E1A324402E070
:102490002E1A0E4432440146A24200D300E0EDE77A
:1024A00000BF70BD0800002400B587B000BF00BFAA
:1024B0001E48006840F002001C4908600846006899
:1024C00000F00200019000BF00BF00BF00BF00BFCE
:1024D0000846006840F0020008600846006800F006
:1024E0000200019000BF00BF00BF02200290012047
:1024F00003900490059002A90D48FEF7C3FB01204C
:10250000029002A90A48FEF7BDFB00BF012202218A
:102510000748FEF7BFFC00BF00BF01221146044878
:10252000FEF7B8FC00BF07B000BD0000E044025851
:102530000004025808B5002400F056FBFEF7C8FC62
:10254000042302220521A02000F0EEFB4FF4C87006
:10255000FFF776FFFFF7A8FF00F09EF818231EA2F2
:102560000021084600F0B0FA10231EA21821002016
:1025700000F0AAFA0C231FA23421002000F0A4FAD4
:102580000C231EA23421402000F09EFA00F0A0F996
:1025900020241FE001200C23224634210090242017
:1025A00000F0BCF90C2003232246342100905E2069
:1025B00000F040FA00F08CF9601CC4B27E2C00DD03
:1025C00020246420FFF742FF00BF02210D48FEF7E0
:1025D00057FC00BFDEE70000414C49454E54454BD7
:1025E00000000000302E393627204F4C454420543F
:1025F0004553540041534349493A0000434F444531
:102600003A0000000004025870B500240CE00025D8
:1026100006E00020074901EBC5010855681CC5B25A
:10262000802DF6DB601CC4B2082CF0DB00F050F902
:1026300070BD000070010024F0B5144600267F280C
:1026400001DC3F2900DDF0BD0B46CF1701EB5777CA
:10265000C7F3C702CF1701EB5777FF10A1EBC707EE
:10266000FDB20123AB40DEB24CB10A4B03EBC00319
:102670009B5C3343074F07EBC007BB5408E0054B97
:1026800003EBC0039B5CB343024F07EBC007BB5493
:1026900000BFD8E77001002400B587B000BF00BFBD
:1026A0008148006840F001007F49086008460068E2
:1026B00000F00100019000BF00BF00BF00BF00BFDD
:1026C0000846006840F0020008600846006800F014
:1026D0000200019000BF00BF00BF00BF00BF08465E
:1026E000006840F0020008600846006800F0020040
:1026F000019000BF00BF00BF00BF00BF08460068D8
:1027000040F0040008600846006800F004000190F2
:1027100000BF00BF00BF00BF00BF0846006840F018
:10272000040008600846006800F00400019000BF43
:1027300000BF00BF4FF4004002900120039003202F
:10274000059002A95948FEF79DFA802002900120C9
:1027500003900320059002A95548FEF793FA102034
:102760000290012003900320059002A95048FEF733
:1027700089FA40200290012003900320059002A9CD
:102780004C48FEF77FFA802002900120039003203E
:10279000059002A94748FEF775FA00BF0122802183
:1027A0004448FEF777FB00BF00BF012240214148AB
:1027B000FEF770FB00BF00BF012280213C48FEF7FE
:1027C00069FB00BF00BF012210213948FEF762FB00
:1027D00000BF00BF00224FF400413448FEF75AFB0F
:1027E00000BF6420FFF732FE00BF0122D1032F4853
:1027F000FEF750FB00BF0021AE2000F095F900214C
:10280000402000F091F90021812000F08DF9002195
:10281000722000F089F90021A12000F085F9002143
:10282000A42000F081F90021A62000F07DF900210C
:10283000A82000F079F900213F2000F075F900216F
:10284000C82000F071F90021D32000F06DF90021BB
:10285000084600F069F90021D52000F065F9002153
:10286000B02000F061F90021D92000F05DF90021CD
:10287000222000F059F90021DA2000F055F900215A
:10288000122000F051F90021DB2000F04DF9002169
:102890003C2000F049F90021AF2000F045F9FFF796
:1028A000B3FE07B000BD0000E0440258000002582B
:1028B000000402580008025810B50246012000E04A
:1028C00050430B1EA1F10104E1B2F9D110BD00008B
:1028D00070B500241CE004F1B001C8B2002100F082
:1028E00023F90021084600F01FF90021102000F014
:1028F0001BF9002508E0084901EBC501085D01212D
:1029000000F012F9681CC5B2802DF4DB601CC4B263
:10291000082CE0DB70BD0000700100242DE9FE4FA3
:1029200080460E4615461C46DDF83090B346002022
:1029300001902046E31704EB5373DB1021464FEA66
:10294000E47C04EB5C7C4FEAEC0CA4EBCC0CBCF11B
:10295000000F02D04FF0010C01E04FF0000C634477
:10296000224604EBD27C4FEA6C0C03FB0CF3DBB287
:102970000093A5F12000C5B20C2C06D105EB450053
:10298000294901EB8000019011E0102C04D1274867
:1029900000EB051001900AE0182C06D105EBC500EC
:1029A000234901EB8000019001E0BDE8FE8F002784
:1029B00034E00198C05D02904FF0000A28E00298D0
:1029C00000F0800028B14A4631464046FFF734FE09
:1029D0000AE0B9F1000F01D1012000E00020024619
:1029E00031464046FFF728FE02984006000E02904E
:1029F000701CC6B2A6EB0B00A04205D15E4608F1E2
:102A0000010000F0FF0806E00AF1010000F0FF0AF3
:102A1000BAF1080FD3DB00BF781CC7B20098874219
:102A2000C7DB00BFC1E70000622E0008D6320008F5
:102A3000C63800082DE9FF4F81B0074691461E4673
:102A40000E9D4FF0000A002439E0301B401EC1B239
:102A50000A20FFF731FFB9FBF0F00A21B0FBF1F2D9
:102A600001FB1208BAF1000F16D1701EA04213DD4F
:102A7000B8F1000F0ED10120AB4605EBDB71491018
:102A800001FB04710090C8B22B4620220299FFF787
:102A900045FF12E04FF0010A0120AB4605EBDB7168
:102AA000491001FB04710090C8B208F13001CAB2AC
:102AB0002B460299FFF732FF00BF601CC4B2B4423C
:102AC000C3DB05B0BDE8F08FF8B506460F461546E6
:102AD0001C4621E004EBD4714910C1F18001B142E0
:102AE00002DA00263819C7B2C4F14000B84204DA4D
:102AF000002006460746FFF787FD012000902A7850
:102B0000234639463046FFF709FF204604EBD071D3
:102B100006EB6101CEB26D1C28787E2802DC287895
:102B20002028D7DAF8BD000070B504460E4600BF75
:102B30002EB1012210212A48FEF7ACF904E0002250
:102B400010212748FEF7A6F900BF00BF0022802110
:102B50002348FEF79FF900BF00BF00224021214813
:102B6000FEF798F900BF002522E000BF00224021B7
:102B70001C48FEF78FF900BF04F0800030B100BFA1
:102B8000012280211748FEF785F906E000BF0022E8
:102B900080211448FEF77EF900BF00BF01224021CA
:102BA0001048FEF777F900BF6006040E681CC5B236
:102BB000082DDADB00BF012240210A48FEF76AF93E
:102BC00000BF00BF012280210548FEF763F900BF66
:102BD00000BF012210210248FEF75CF900BF70BD62
:102BE000000402580008025810B500BF4C480068A5
:102BF00000F4003000B139E000BF00BF00BFBFF3F8
:102C00004F8F00BF00BF00BF00BF00BF00BFBFF3BA
:102C10006F8F00BF00BF00BF00204249086000BFA7
:102C200000BF00BFBFF34F8F00BF00BF00BF00BF9A
:102C300000BF00BFBFF36F8F00BF00BF00BF3848A9
:102C4000006840F400303649086000BF00BF00BF94
:102C5000BFF34F8F00BF00BF00BF00BF00BF00BF6A
:102C6000BFF36F8F00BF00BF00BF00BF00BF2C4B82
:102C70001B6803F4803303B148E00023284C703410
:102C8000236000BF00BF00BFBFF34F8F00BF00BF76
:102C900000BF231F1868C0F34E3100BFC0F3C90244
:102CA00000BF43F6E07303EA41134FF0404404EAE7
:102CB000827423431B4C1034236000BF00BF131EDB
:102CC000A2F10102EDD10B1EA1F10101E6D100BF7D
:102CD00000BF00BFBFF34F8F00BF00BF00BF104B4E
:102CE0001B6843F480330E4C236000BF00BF00BF5D
:102CF000BFF34F8F00BF00BF00BF00BF00BF00BFCA
:102D0000BFF36F8F00BF00BF00BF00BF05484C304E
:102D1000006840F0040003494C31086010BD000019
:102D200014ED00E050EF00E02DE9F0419CB080464A
:102D30000C4615461E4600274048006820F0040057
:102D40003E49086000BF002000903D48006820F028
:102D500001003B4908600846006800F0010000904F
:102D600036480C30006840F4404034490C3108606B
:102D70000846006800F44040009000BF00BF00BF5C
:102D80002E480C30006800F40050B0F5005FF7D119
:102D9000212001904FF48030029000200490089090
:102DA0000120079002200A9002210B91CDF8348077
:102DB0000C940E950F96002112910821119100217B
:102DC000139101A8FEF7E2FB07461FB101201CB0DA
:102DD000BDE8F0813F20149003201590002016904C
:102DE000082017904020199000011A904020189058
:102DF0001B90022114A8FEF723F907460FB101200A
:102E0000E5E7FEF713F90F48006840F080000D4930
:102E1000086000BF0B48F430006840F00200094928
:102E2000F43108600846006800F00200009000BF1E
:102E300000BFFDF71DFF0020C9E700000C48025845
:102E40002C040058004402584FF04070E1EE100A84
:102E5000704700000000010203040102030406079A
:102E60000809000000000000000000000000000051
:102E700000003F4000000000000000003000400063
:102E800030004000000009000BC03D000BC03D00B9
:102E9000090018C024407FE0224031800000180063
:102EA00024C01B000D803240018003801C4027405D
:102EB0001C8007400040100060000000000000007F
:102EC00000000000000000001F80204040200000A3
:102ED000402020401F8000000000090006001F80E5
:102EE000060009000000040004003F800400040004
:102EF000000000100060000000000000000004005E
:102F00000400040004000400000000000040000071
:102F1000000000000000002001C006003800400052
:102F200000001F802040204020401F800000000043
:102F300010403FC000400000000018C02140224067
:102F400024401840000010802040244024401B8072
:102F5000000002000D0011003FC0014000003C8055
:102F6000244024402440238000001F80244024402B
:102F70003440038000003000200027C038002000CB
:102F800000001B802440244024401B8000001C00C3
:102F900022C0224022401F800000000000000840A4
:102FA00000000000000000000000046000000000BD
:102FB0000000000004000A001100208040400900C9
:102FC00009000900090009000000000040402080BD
:102FD00011000A00040018002000234024001800FB
:102FE00000001F802040274029401F400000004073
:102FF00007C039000F0001C0004020403FC02440FE
:1030000024401B8000001F80204020402040308052
:10301000000020403FC0204020401F800000204092
:103020003FC024402E4030C0000020403FC024401C
:103030002E00300000000F0010802040224033801E
:10304000020020403FC0040004003FC02040204058
:1030500020403FC020402040000000602020202071
:103060003FC02000200020403FC024400B0030C063
:10307000204020403FC020400040004000C03FC0F2
:103080003C0003C03C003FC0000020403FC00C405B
:1030900023003FC020001F802040204020401F8090
:1030A000000020403FC024402400180000001F8082
:1030B0002140214020E01FA0000020403FC02440CC
:1030C000260019C0004018C024402440224031800E
:1030D0000000300020403FC02040300000002000B1
:1030E0003F80004000403F80200020003E0001C0A3
:1030F000070038002000380007C03C0007C0380037
:103100000000204039C0060039C0204000002000E7
:10311000384007C0384020000000304021C0264021
:10312000384020C00000000000007FE04020402028
:103130000000000070000C00038000400000000050
:10314000402040207FE00000000000002000400000
:1031500020000000000000100010001000100010FF
:10316000001000000000400000000000000000000F
:1031700002800540054003C0004020003FC00440DD
:103180000440038000000000038004400440064027
:10319000000000000380044024403FC000400000C5
:1031A00003800540054003400000000004401FC0AC
:1031B000244024402000000002E005500550065045
:1031C000042020403FC00440040003C00040000031
:1031D000044027C000400000000000100010041050
:1031E00027E00000000020403FC00140070004C06D
:1031F0000440204020403FC000400040000007C085
:10320000040007C0040003C00000044007C00440DD
:10321000040003C000400000038004400440038019
:103220000000041007F00450044003800000000078
:1032300003800440045007F00010044007C002401F
:10324000040004000000000006400540054004C0E2
:103250000000000004001F80044000400000040043
:1032600007800040044007C000400400070004C07D
:10327000018006000400060001C0070001C006002E
:103280000000044006C0010006C004400000041015
:10329000071004E00180060004000000044005C09F
:1032A0000640044000000000000004007BE04020D5
:1032B0000000000000000000FFF00000000000001F
:1032C00040207BE00400000000004000800040003F
:1032D000200020004000000000000000000000006E
:1032E0000000000000000000000000001FCC000CE7
:1032F000000000000000000008003000600008002E
:10330000300060000000022003FC1E20022003FCAD
:103310001E200220000000000E1811043FFF108440
:103320000C78000000000F0010840F3800C00778F0
:1033300018840078000000780F8410C411240E98BF
:1033400000E400840008080068007000000000002D
:1033500000000000000000000000000007E0181856
:10336000200440020000000040022004181807E07A
:103370000000000000000240024001800FF00180C8
:103380000240024000000080008000800FF80080B2
:103390000080008000000001000D000E0000000011
:1033A000000000000000000000800080008000801D
:1033B0000080008000800000000C000C0000000075
:1033C00000000000000000000006001800600180FE
:1033D000060018002000000007F008081004100480
:1033E000080807F000000000080408041FFC00049F
:1033F00000040000000000000E0C10141024104403
:1034000011840E0C000000000C18100411041104AB
:1034100012880C700000000000E00320042408243F
:103420001FFC0024000000001F98108411041104E8
:10343000108810700000000007F0088811041104C3
:1034400018880070000000001C00100010FC130021
:103450001C001000000000000E381144108410847D
:1034600011440E38000000000700088C104410447E
:10347000088807F00000000000000000030C030CA7
:103480000000000000000000000000010106000034
:103490000000000000000000008001400220041035
:1034A000080810040000022002200220022002204E
:1034B000022002200000000010040808041002206E
:1034C00001400080000000000E001200100C106C83
:1034D00010800F00000003E00C1813E4142417C43C
:1034E000082807D000000004003C03C41C4007402B
:1034F00000E4001C000410041FFC1104110411045A
:103500000E880070000003E00C1810041004100472
:1035100010081C10000010041FFC100410041004FC
:10352000080807F0000010041FFC1104110417C460
:1035300010040818000010041FFC1104110017C02B
:1035400010000800000003E00C18100410041044E0
:103550001C780040000010041FFC108400800080D4
:1035600010841FFC10040000100410041FFC100441
:1035700010040000000000030001100110011FFEF4
:1035800010001000000010041FFC110403801464DC
:10359000181C1004000010041FFC10040004000498
:1035A0000004000C000010041FFC1F0000FC1F00A2
:1035B0001FFC1004000010041FFC0C04030000E0BA
:1035C00010181FFC100007F0080810041004100465
:1035D000080807F0000010041FFC10841080108001
:1035E00010800F00000007F0081810241024101C91
:1035F000080A07F2000010041FFC1104110011C09A
:1036000011300E0C000400000E1C110410841084F4
:1036100010441C3800001800100010041FFC100497
:1036200010001800000010001FF81004000400042F
:1036300010041FF8100010001E0011E0001C0070A4
:1036400013801C0010001FC0103C00E01F0000E0B1
:10365000103C1FC000001004180C163401C001C03B
:103660001634180C100410001C00130400FC130482
:103670001C00100000000804101C106410841304C7
:103680001C04101800000000000000007FFE400233
:10369000400240020000000030000C000380006087
:1036A000001C0003000000004002400240027FFEB8
:1036B000000000000000000000002000400040006A
:1036C0004000200000000001000100010001000195
:1036D0000001000100010000400040002000000047
:1036E0000000000000000000009801240144014493
:1036F000014400FC000410001FFC008801040104C8
:1037000000880070000000000070008801040104BF
:10371000010400880000000000700088010401041A
:1037200011081FFC0004000000F80144014401449A
:10373000014400C800000000010401040FFC110452
:10374000110411001800000000D6012901290129E7
:1037500001C90106000010041FFC008401000100E3
:10376000010400FC000400000104190419FC000419
:103770000004000000000000000300010101190125
:1037800019FE0000000010041FFC0024004001B4DA
:10379000010C010400000000100410041FFC0004D0
:1037A000000400000000010401FC0104010001FC10
:1037B0000104010000FC010401FC0084010001007F
:1037C000010400FC0004000000F8010401040104ED
:1037D000010400F80000010101FF0085010401045B
:1037E00000880070000000000070008801040104DF
:1037F000010501FF00010104010401FC0084010432
:10380000010001800000000000CC012401240124FB
:1038100001240198000000000100010007F80104E4
:10382000010400000000010001F80004000400048D
:10383000010801FC0004010001800170000C00106F
:1038400001600180010001F0010C003001C0003076
:10385000010C01F0010000000104018C00740170F2
:10386000018C01040000010101810171000E0018AA
:1038700001600180010000000184010C0134014459
:103880000184010C000000000000000000000100A5
:103890003EFC400240020000000000000000FFFF6C
:1038A0000000000000000000400240023EFC010059
:1038B0000000000000000000600080008000400068
:1038C0004000200020000000000000000000000078
:1038D00000000000000000000000000000000000E8
:1038E00000000000000000000000000000000000D8
:1038F0000000000000000000000F80380FFE380FAD
:1039000080380000000000000000000000000000FF
:10391000000000000100000600000C00003800005C
:103920003100000600000C000038000030000000EC
:1039300000000000000061800067F807F980006166
:10394000800061800061800061800067F807F98075
:1039500000618000000000000000000001C0E003E2
:10396000E0F00630080418081FFFFE040E08078761
:10397000F00381E000000000000001F000060C00F0
:10398000040408060C7001F9C0000E00003BE000C2
:10399000EC18070808040C180003E0000000000100
:1039A000E00007F003F818041C0804170807E1D02A
:1039B00003C0E00023B0003C080020080000100015
:1039C00000000000000100003100003200001C0077
:1039D00000000000000000000000000000000000E7
:1039E00000000000000000000000000000000000D7
:1039F0000000000000007F0001FFC00780F00C0005
:103A00001810000420000200000000000020000246
:103A10001000040C00180780F001FFC0007F0000B8
:103A20000000000000000000000000000000000096
:103A300000004200006600006600003C0000180024
:103A400003FFC0001800003C000066000066000094
:103A50004200000000000800000800000800000804
:103A60000000080001FFC000080000080000080076
:103A70000008000008000000000000010000310004
:103A8000003200001C0000000000000000000000E8
:103A9000000000000000000000000000000008001E
:103AA00000080000080000080000080000080000EE
:103AB00008000008000008000008000000000000E6
:103AC000000000000000380000380000380000004E
:103AD00000000000000000000000000000000000E6
:103AE000000000000000000600001C000070000143
:103AF00080000E0000380000C0000700001C00001D
:103B0000300000000000000000007F8001FFE003A3
:103B100080700600180400080400080600180380DE
:103B20007001FFE0007F8000000000000000000046
:103B300001000801000801000803FFF807FFF80072
:103B4000000800000800000800000000000000005D
:103B50000001C03802C0580400980401180402187B
:103B6000040418061C1803F81801E0F8000000000F
:103B7000000000000001C0E003C0F00400080408D9
:103B80000804080806180803F41801E7F00001E02B
:103B9000000000000000000000000300000D000015
:103BA000110000610000810803010807FFF80FFF02
:103BB000F80001080001080000000000000000E01B
:103BC00007FCD006080806100806100806100806AC
:103BD0001838060FF00607C00000000000000000C3
:103BE00000003F8001FFE003843002081804100841
:103BF000041008041008071810030FF00007C00095
:103C0000000000000000000003C0000700000600E4
:103C1000000600F80607F806180006E00007000096
:103C200006000000000000000001E1E003F7F006DC
:103C30003410041808041808040C08040C080616AC
:103C40001803F3F001C1E000000000000000F800DC
:103C500003FC3003063804020804020804020804C6
:103C600004100308F001FFC0007F00000000000006
:103C7000000000000000000000000000000070389C
:103C800000703800703800000000000000000000E4
:103C90000000000000000000000000000000000024
:103CA0000000301A00301C0000000000000000007E
:103CB00000000000000000000000000000080000FC
:103CC000140000220000410000808001004002003A
:103CD000200400100800080000000000000021007F
:103CE000002100002100002100002100002100002F
:103CF0002100002100002100002100000000000040
:103D0000000000000800080400100200200100402C
:103D10000080800041000022000014000008000024
:103D2000000000000003C00004C000040000080000
:103D300038080F380808380810000C300007E00079
:103D400003C000000000000000003F8000FFE0030F
:103D50008070020F1006708804C088048308047FF6
:103D60008802C09003012000FE40000008000018F7
:103D70000001F8003E0801C20007020007E200004F
:103D8000FE00001FC80001F8000038000008040011
:103D90000807FFF807FFF8040808040808040808E3
:103DA00004080806180803F41801E7F00001E00011
:103DB0000000000000003F8001FFE003807002006F
:103DC000180400080400080400080400100600207D
:103DD0000780C000000004000807FFF807FFF80490
:103DE0000008040008040008040018020010038002
:103DF0007001FFE0007F8000000004000807FFF86A
:103E000007FFF80408080408080408080408080460
:103E10003E080400080600180100600000000400CD
:103E20000807FFF807FFF804080804080004080062
:103E3000040800043E0006000006000001800000A7
:103E40000000000000003F8001FFE00380700600DA
:103E5000180400080402080402080203F00783F0B3
:103E600000020000020004000807FFF807FFF80442
:103E70000808000800000800000800000800040806
:103E80000807FFF807FFF804000800000000000022
:103E900004000804000804000807FFF807FFF804FE
:103EA00000080400080400080000000000000000F2
:103EB00000000006000007000001040001040001EA
:103EC00004000307FFFE07FFFC04000004000004D9
:103ED000000004000807FFF807FFF8040C080018AA
:103EE00000003E0004C7800503C80600F80400383F
:103EF00004001800000804000807FFF807FFF80492
:103F00000008000008000008000008000008000089
:103F10000800001800006000000004000807FFF817
:103F200007800807FC00007FC00003F80007C000FE
:103F3000780007800807FFF807FFF804000804006E
:103F40000807FFF807000803C00000E00000380081
:103F5000001E000007000001C00400F007FFF80485
:103F60000000000000007F8001FFE0038070060079
:103F70001804000804000806001803003001FFE0E0
:103F8000007F8000000004000807FFF807FFF80426
:103F90000408040400040400040400040400060CE3
:103FA0000003F80001F000000000000000007F8026
:103FB00001FFE00380700600880400880400C80642
:103FC000003C03003E01FFE6007F84000000040087
:103FD0000807FFF807FFF8040808040800040C00AD
:103FE000040F00040BC00610F003F03801E00800D5
:103FF000000800000001E0F803F03006301004185B
:1040000008041808040C08040C080206180207F03B
:104010000781E000000001800006000004000004A9
:10402000000004000807FFF807FFF8040008040078
:104030000004000006000001800004000007FFE00B
:1040400007FFF00400180000080000080000080046
:10405000000800000804001007FFE004000004004E
:104060000006000007E00007FE00041FE00001F862
:104070000000380001E0043E0007C0000600000414
:10408000000004000007E00007FFC0041FF800075D
:10409000C007F80007FF80043FF80007C004F800DD
:1040A00007000004000000000004000806001807D4
:1040B000C07805F1C8003E00001F800463E8078057
:1040C000F8060018040008000000040000060000C4
:1040D00007800007E008047C08001FF80007F800CC
:1040E000180804E0080700000600000400000000B3
:1040F000000100080600380400F80403E8040F0873
:10410000047C0805F00807C00807001804006000D8
:10411000000000000000000000000000000000009F
:10412000003FFFFE200002200002200002200002CB
:10413000200002000000000000000000080000074E
:10414000000000C0000038000006000001C00000B0
:104150003000000E00000100000000000000000020
:104160002000022000022000022000022000023F66
:10417000FFFE000000000000000000000000000042
:1041800000000000000000080000100000300000E7
:1041900020000030000010000008000000000000B7
:1041A000000000000100000100000100000100000B
:1041B00001000001000001000001000001000001F9
:1041C00000000100000100000000000000000020CD
:1041D000000020000010000010000000000000009F
:1041E000000000000000000000000000000000F0DF
:1041F0000019F8001B1800220800260800240800F7
:104200002410003FF8001FF800000800001800000C
:104210000004000007FFF80FFFF000181800100856
:10422000002008002008003018001FF0000FC00018
:1042300000000000000007C0001FF0001830002040
:1042400008002008002008003C08001C1000006046
:104250000000000000000000000007C0001FF00088
:10426000381800200800200800200804101007FF5C
:10427000F80FFFF000001000000000000000000038
:104280000007C0001FF000123000221800220800B2
:104290002208003208001E10000E2000000000005E
:1042A0000000200000200800200801FFF803FFF8AC
:1042B000062008042008042008072000030000004E
:1042C000000000000000000E000E6E001FF3003121
:1042D000B10020B10020B1003191001F13002E1E4B
:1042E00000200E00300000000004000807FFF80F57
:1042F000FFF8001008002000002000002008003F08
:10430000F8001FF800000800000000000000000096
:10431000002008002008002008063FF8063FF800AB
:104320000008000008000008000000000000000075
:104330000000000000000300000300200100200135
:10434000002003063FFE063FFC00000000000000C6
:10435000000000000004000807FFF80FFFF800014C
:1043600088000300002FC00038F800203800200823
:104370000000080000000000000000000400080425
:10438000000804000807FFF80FFFF800000800000D
:1043900008000008000000000000002008003FF8AE
:1043A000003FF8001008002000003FF8003FF80030
:1043B0001008002000003FF8003FF800000800004F
:1043C00000002008003FF8003FF80010080010002F
:1043D000002000002008003FF8001FF8000008003F
:1043E00000000000000007C0000FF000183000308F
:1043F00008002008002008003008001830000FF0E6
:104400000007C0000000000000002001003FFF0086
:104410003FFF001011002009002008002008003094
:1044200038001FF0000FC00000000000000007C0AF
:10443000001FF000381800200800200800200900A4
:104440001011001FFF003FFF0000010000000020CE
:1044500008002008002008003FF8003FF800080886
:10446000001008002008002000003000003000008C
:104470000000000000000000000C78001E1800334F
:10448000080023080021080021880021980030F04E
:104490000038600000000000000020000020000044
:1044A000200000FFF003FFF8002008002008002093
:1044B00008000030000000000000000000002000A4
:1044C000003FF0007FF8000018000008000008001E
:1044D0002010003FF8007FF00000100000000000F6
:1044E00000002000003000003C00003F800023F06E
:1044F000000078000070002380003C0000300000C5
:104500002000002000003C00003FE00023F80000F5
:10451000E0002700003E00003FE00021F80001E03D
:10452000003E0000200000000000200800200800DD
:104530003838003E680027800003C8002CF8003897
:1045400038002018002008000000000000002000B3
:10455000003003003C01003F830023EC00007000AA
:104560002380003C0000200000200000000000002C
:10457000000000000038080020380020F80023E880
:10458000002F88003E080038080020180000700046
:10459000000000000000000000000000000000001B
:1045A000000008000014001FF7FC30000620000285
:1045B00000000000000000000000000000000000FB
:1045C0000000000000000000FFFFFF0000000000EE
:1045D00000000000000000000000000000000000DB
:1045E0002000023000061FF7FC0014000008000045
:1045F00000000000000000000000000000000000BB
:104600000018000060000040000040000020000092
:104610001000000800000400000400000C0000105E
:1046200000000000444600080000002418000000BC
:10463000D40200085C46000818000024B80D0000F1
:10464000F00200080090D0030090D00300000000AA
:0C4650000000000010000000010000004D
:040000050800029954
:00000001FF
